:020000040800F2
:10000000FCFF002085020008D5020008D502000888
:10001000D5020008D5020008D50200080000000043
:10002000000000000000000000000000D5020008F1
:10003000D502000800000000D50200088562000813
:10004000D5020008D5020008D5020008D502000834
:10005000D5020008D5020008D5020008D502000824
:10006000D5020008D5020008D5020008D502000814
:10007000D5020008D5020008D5020008D502000804
:10008000D5020008D5020008D502000800000000D3
:10009000000000000000000000000000D502000881
:1000A000D5020008D5020008D5020008D5020008D4
:1000B000D5020008D5020008D5020008D5020008C4
:1000C000D5020008D5020008D5020008D5020008B4
:1000D000D5020008D5020008D50200080000000083
:1000E000D5020008D5020008D50200080000000073
:1000F000000000000000000000000000D502000821
:1001000000000000D5020008D5020008D502000852
:1001100000000000000000000000000000000000DF
:10012000D5020008D5020008D5020008D502000853
:10013000D5020008000000000000000000000000E0
:1001400000000000000000000000000091620008B4
:10015000D5020008D5020008D5020008D502000823
:10016000D5020008D50200080000000000000000D1
:10017000000000000000000000000000000000007F
:1001800000000000D5020008000000000000000090
:08019000D5020008D5020008A9
:1001A000034613F8012B002AFBD1181A01387047B7
:1001B00001F0FF01102A2BDB10F0070F08D010F818
:1001C000013B013A8B422DD010F0070F42B3F6D11C
:1001D000F0B441EA012141EA014122F007047FF035
:1001E00000070023F0E80256083C85EA010586EA8C
:1001F000010685FA47F5A3FA87F586FA47F6A5FAC8
:1002000087F68EB9EED1F0BC01F0FF0102F00702D3
:1002100032B110F8013B013A83EA010313B1F8D17E
:100220000020704701387047002D06BF354603385F
:10023000073815F0010F07D1013015F4807F02BF98
:10024000013015F4C03F0130F0BC0138704700BFE9
:1002500053B94AB9002908BF00281CBF4FF0FF312D
:100260004FF0FF3000F00CB8ADF1080C6DE904CE92
:1002700006F0DAFFDDF804E0DDE9022304B07047A0
:10028000704700BFDFF834D0002103E00C4B5B580F
:10029000435004310B480C4B42189A42F6D30B4A98
:1002A00002E0002342F8043B094B9A42F9D305F0DF
:1002B000F5FF06F001F805F09DFF7047FCFF0020F8
:1002C000C0800008000000203C0300203C03002008
:1002D00028240020FEE700000268124B9A4201D059
:1002E00000207047426803F1144303F52C1303F612
:1002F00002339A4201D000207047D0F8FC210A4B0B
:100300009A4201D000207047836823F4FF5323F002
:100310001E039B049B0CB3F5005F01D000207047C7
:10032000012070475546320A306FB10A00234FF062
:10033000020C0FE0002001441CFA81F11FFA81FC3D
:100340000CF1FF3002EB4202D1000C4A0A44D08289
:1003500001339BB2022B10D81A4603EB4301C800AD
:1003600006490144A1F814C00869C0F34F21C0F345
:1003700008000028DED00120DDE770479802002049
:1003800001464FF6EF73984215D8002000E0013087
:1003900002280ED800EB4002084B03EBC2039B8AF5
:1003A0008B42F4D8054B03EBC203DB8A8B42EED3BE
:1003B00002E0022070470220704700BF9802002030
:1003C00030B587B086468C4601AC0E4D0FCD0FC4BC
:1003D0002B68237000220DE0C2F107039B002EFA68
:1003E00003F303F00F0318336B4413F8143C0CF8B9
:1003F00002300132072AEFD900230CF8023007B08F
:1004000030BD00BF8C7500080023934210DA10B491
:1004100005E02024047001300133934205DA0C78A2
:10042000002CF6D001310470F5E75DF8044B7047FD
:100430007047012070470000024B0B604FF40073BF
:100440001380704709010100012070470048704780
:10045000C000002000487047A00000200A4404E0CB
:100460005DF804FB91F800C0614491421AD291F802
:1004700001C0BCF1050FF5D100B591F802C00CF038
:100480007F0E00EB4E0E4FEADC1C0EF80C3091F89C
:1004900000C061449142E3D291F801C0BCF1050F64
:1004A000F5D1EAE7704703460A4490B2814202D888
:1004B000B0EB430F03DB5B009BB2C01A80B2704706
:1004C000818803899BB2428992B2934206D39B1AD8
:1004D00098B281428CBF0020012070479B1A4A00CD
:1004E00012FA83F398B2F4E70023438103810120D9
:1004F00070470020704700207047002070470020A0
:1005000070470000024B1878FF3818BF0120704771
:100510009C00002001F07F02044B03EB420303EB3D
:10052000D11191F8200000F001007047201A00203E
:1005300001F07F02044B03EB420303EBD11191F86E
:100540002000C0F340007047201A0020014B1861C2
:10055000704700BFFC19002070B505460C461646D2
:100560004869FFF7F3FF636932460121284698473F
:1005700070BD00000146054B1A460068496803C279
:1005800000229A60DA819A81704700BFFC1900202E
:10059000044880F83C1080F83D2080F83E3001206F
:1005A000704700BF7C19002010B51C460B781E2B2D
:1005B00002D10024204610BD002320220521FFF790
:1005C000E7FFF7E7002380F830304363836380F868
:1005D0003C3080F83D3080F83E307047BFF34F8F9D
:1005E0000549CA6802F4E062044B1343CB60BFF3D1
:1005F0004F8F00BFFDE700BF00ED00E00400FA05EB
:1006000008B5FFF7EBFF0000054BD3F8102A026096
:10061000D3F8142A4260D3F8183A83600C2070474C
:100620000070FF1F0B4B1B680B4AA2FB03239B09A7
:1006300003FB00F00138B0F1807F0AD24FF0E023D5
:100640005861064AF02182F8231000229A6107229D
:100650001A61704788000020D34D621000ED00E061
:100660004FF0E022136923F001031361704700008B
:1006700008B5154B1860013803280CD8DFE800F0E6
:100680000C0216200120FFF7CDFF104A104B1B680B
:1006900013801B0C937008BD0520FFF7C3FF0B4AA6
:1006A0000C4B1B6813801B0C9370F4E71920FFF7A9
:1006B000B9FF064A084B1B6813801B0C9370EAE7CE
:1006C000FFF7CEFFE7E700BFCC220020C8220020C2
:1006D000808000087C800008D400002008B501203C
:1006E000FFF7C6FF08BD08B50220FFF7C1FF08BD30
:1006F000002300E004338B4205D21A58B2F1FF3FC9
:10070000F8D000207047012070474FF40020704758
:10071000224B9B6803F00C03042B11D0082B13D041
:10072000002B37D11E4B1F4A1A601C4B9B68C3F32A
:1007300003131D4AD15C1A4A1368CB4013607047FB
:10074000174B1A4A1A60F0E7144B59685A6802F0BE
:100750003F0211F4800F13D0144BB3FBF2F30F4A96
:100760005268C2F3881202FB03F30C4A5268C2F3C8
:10077000014201325200B3FBF2F3094A1360D4E79D
:10078000084BB3FBF2F3054A5268C2F3881202FB2E
:1007900003F3EAE7024B034A1A60C6E70038024057
:1007A000880000200024F400647E000840787D0169
:1007B000024A136801331360704700BFCC08002061
:1007C000014B1868704700BFCC080020002807DBE9
:1007D00000F01F02400901239340024A42F82030F2
:1007E000704700BF00E100E0002808DB0901C9B242
:1007F00000F1604000F5614080F80013704700F0A0
:100800000F000901C9B2014B1954704714ED00E003
:1008100000B500F00700C0F1070CBCF1040F28BFC1
:100820004FF0040C031D062B0FD9C31E4FF0FF3EE3
:100830000EFA0CF021EA000199400EFA03FE22EABA
:100840000E0241EA02005DF804FB0023EEE700001F
:1008500010B50446054BD868C0F30220FFF7D8FF57
:1008600001462046FFF7C0FF10BD00BF00ED00E0CD
:1008700008B5FFF7ABFF08BD0138B0F1807F0BD2A0
:100880004FF0E0235861054AF02182F82310002040
:10089000986107221A6170470120704700ED00E05F
:1008A00010B504460C4B18680C4BA3FB00308009B4
:1008B000FFF7E2FF68B90F2C01D901200AE00022FE
:1008C00021464FF0FF30FFF7C3FF054B1C600020AF
:1008D00000E0012010BD00BF88000020D34D621051
:1008E00084000020002800F0DA8170B582B0044650
:1008F000036813F0010F3BD09F4B9B6803F00C0380
:10090000042B2CD09C4B9B6803F00C03082B21D0AC
:100910006368B3F5803F4FD0B3F5A02F52D0964B0C
:100920001A6822F480321A601A6822F480221A604F
:100930006368002B50D0FFF743FF05468E4B1B68C2
:1009400013F4003F14D1FFF73BFF401B6428F5D997
:100950000320ABE1884B5B6813F4800FD8D0864B43
:100960001B6813F4003F03D06368002B00F09981EB
:10097000236813F0020F54D07F4B9B6813F00C0FC9
:100980003ED07D4B9B6803F00C03082B33D0E3680B
:10099000002B68D0794B01221A60FFF711FF054642
:1009A000754B1B6813F0020F54D1FFF709FF401B72
:1009B0000228F5D9032079E16F4A136843F48033A4
:1009C0001360B5E76C4B1A6842F480221A601A680B
:1009D00042F480321A60ABE7FFF7F2FE0546664B41
:1009E0001B6813F4003FC3D0FFF7EAFE401B6428E6
:1009F000F5D903205AE1604B5B6813F4800FC6D130
:100A00005D4B1B6813F0020F03D0E368012B40F02D
:100A10004A81594A1368216923F0F80343EAC10364
:100A20001360236813F0080F42D063696BB3534B14
:100A30000122C3F8802EFFF7C3FE05464E4B5B6FC5
:100A400013F0020F34D1FFF7BBFE401B0228F5D98B
:100A500003202BE1484A1368216923F0F80343EA95
:100A6000C1031360DDE7454B00221A60FFF7A8FEC3
:100A70000546414B1B6813F0020FD2D0FFF7A0FED2
:100A8000401B0228F5D9032010E13C4B0022C3F89B
:100A9000802EFFF795FE0546374B5B6F13F0020F74
:100AA00006D0FFF78DFE401B0228F5D90320FDE09C
:100AB000236813F0040F77D02F4B1B6C13F0805F6B
:100AC00033D1002301932C4B1A6C42F080521A64EC
:100AD0001B6C03F080530193019B0125284B1B687D
:100AE00013F4807F23D0A368012B34D0052B38D09A
:100AF000214B1A6F22F001021A671A6F22F00402CA
:100B00001A67A368002B3DD0FFF75AFE06461A4B22
:100B10001B6F13F0020F46D1FFF752FE801B41F20C
:100B200088339842F3D90320C0E00025D6E7144A61
:100B3000136843F480731360FFF742FE0646104BC0
:100B40001B6813F4807FCED1FFF73AFE801B02288A
:100B5000F5D90320AAE0084A136F43F00103136795
:100B6000CFE7054B1A6F42F004021A671A6F42F082
:100B700001021A67C5E700BF003802400000474283
:100B800000700040FFF71CFE06464F4B1B6F13F032
:100B9000020F08D0FFF714FE801B41F28833984201
:100BA000F3D9032082E0E5B9A369002B7DD0464A42
:100BB000926802F00C02082A51D0022B17D0434B46
:100BC00000221A66FFF7FCFD04463F4B1B6813F03A
:100BD000007F42D0FFF7F4FD001B0228F5D9032067
:100BE00064E0394A136C23F080531364DCE7374B1D
:100BF00000221A66FFF7E4FD0546334B1B6813F02D
:100C0000007F06D0FFF7DCFD401B0228F5D903204A
:100C10004CE0E369226A1343626A43EA8213A26AE0
:100C20005208013A43EA0243E26A43EA0263264A6F
:100C30005360264B01221A66FFF7C2FD0446224B81
:100C40001B6813F0007F06D1FFF7BAFD001B0228D6
:100C5000F5D903202AE0002028E0002026E0012B1F
:100C600026D0194B5B6803F48001E269914221D1DF
:100C700003F03F02216A8A421ED1616A47F6C072C0
:100C80001A408A421AD103F44032A16A8A4217D12B
:100C900003F07063E26A934214D1002006E0012061
:100CA0007047012002E0012000E0002002B070BD8A
:100CB0000120FBE70120F9E70120F7E70120F5E734
:100CC0000120F3E70120F1E700380240000047422D
:100CD00008B5194B9B6803F00C03042B27D0082B95
:100CE00027D1154B5A6802F03F025B6813F4800F5E
:100CF00012D0114B5968C1F3881110480023A1FB91
:100D00000001FFF7A5FA0C4B5B68C3F30143013305
:100D10005B00B0FBF3F008BD074B5968C1F38811C5
:100D200007480023A1FB0001FFF792FAEBE7034815
:100D3000F1E70348EFE700BF0038024040787D014B
:100D40000024F400002800F09B8070B50D46044696
:100D50004F4B1B6803F00F038B4208D2CBB24C4AB7
:100D60001370136803F00F038B4240F08B802368ED
:100D700013F0020F17D013F0040F04D0454A936804
:100D800043F4E0539360236813F0080F04D0414A02
:100D9000936843F4604393603E4A936823F0F00302
:100DA000A1680B439360236813F0010F32D062688F
:100DB000012A21D0931E012B25D9364B1B6813F035
:100DC000020F61D033498B6823F0030313438B6018
:100DD000FFF7F6FC06462F4B9B6803F00C03626896
:100DE000B3EB820F16D0FFF7EBFC801B41F2883388
:100DF0009842F0D9032042E0264B1B6813F4003FD1
:100E0000E0D101203BE0234B1B6813F0007FD9D1D8
:100E1000012034E01E4B1B6803F00F03AB4207D9DF
:100E2000EAB21B4B1A701B6803F00F03AB422DD1C3
:100E3000236813F0040F06D0164A936823F4E05396
:100E4000E1680B439360236813F0080F07D0114A41
:100E50009368216923F4604343EAC1039360FFF779
:100E600037FF0C4B9B68C3F303130B4AD35CD8408A
:100E70000A4B18600A4B1868FFF712FD002070BD7E
:100E8000012070470120FAE70120F8E70120F6E78A
:100E9000003C024000380240647E000888000020C8
:100EA0008400002030B595B0002401941C4B1A6CCE
:100EB00042F080521A641B6C03F080530193019B33
:100EC0000294184B1A6842F440421A601B6803F4FB
:100ED00040430293029B012303934FF48033049316
:100EE000022509954FF480030A9319230B934FF4BD
:100EF000C0730C9304230D9308230E9303A8FFF7EC
:100F0000F1FC0F230F93109511944FF4805312931B
:100F1000139429460FA8FFF715FF15B030BD00BF89
:100F20000038024000700040014B1868704700BF55
:100F30008800002008B5FFF7F7FF044B9B68C3F358
:100F40008223034AD35CD84008BD00BF003802406A
:100F50005C7E000808B5FFF7E7FF044B9B68C3F30E
:100F60004233034AD35CD84008BD00BF003802407A
:100F70005C7E000800230F2B00F2C880F0B583B020
:100F80003AE0042200E00022AA4032430234604DDD
:100F900045F824205F4A14686FEA0C0224EA0C0525
:100FA0004E6816F4803F01D04CEA0405594C256088
:100FB000646802EA04054E6816F4003F01D04CEA6A
:100FC0000405544C6560A46802EA04054E6816F4F2
:100FD000801F01D04CEA04054E4CA560E468224015
:100FE0004D6815F4001F01D04CEA0402494CE26040
:100FF00001330F2B00F2888001229A400C6804EA2A
:10100000020C32EA0404F3D14C68651E012D03D9A9
:10101000112C01D0122C12D185685E000324B4403B
:1010200025EA0405CC68B4402C438460446824EA73
:1010300002044A68C2F300129A4022434260C56823
:101040004FEA430E032202FA0EF2D44325EA0205C8
:101050008A6802FA0EF22A43C2604A68022A01D064
:10106000122A0FD1DD08083550F8257003F0070665
:10107000B6000F22B24027EA02070A69B2403A439B
:1010800040F82520026814404A6802F0030202FA80
:101090000EF2224302604A6812F0805FA8D000225C
:1010A00001921D4A546C44F480445464526C02F41E
:1010B00080420192019A9C08A51C154A52F82560AD
:1010C00003F00305AD000F22AA4026EA0206134AE8
:1010D00090423FF458AF02F5806290420ED002F584
:1010E000806290420CD002F5806290420AD002F5F4
:1010F000806290423FF445AF072245E7012243E773
:10110000022241E703223FE703B0F0BD704700BF72
:1011100000380140003C014000380240000002401D
:1011200000230F2B7CD8F0B52DE0042500E000252E
:1011300005FA0CF5A54257D004685D004FF0030C8A
:101140000CFA05FC24EA0C0404604FEAD30E0EF1FD
:10115000080E50F82E4003F00706B6000F25B540E4
:1011600024EA050440F82E40C46824EA0C04C46054
:10117000446824EA02024260826822EA0C02826029
:1011800001330F2B4BD801229A4002EA010632EAC2
:101190000104F5D14FEA930E0EF10205214C54F8EB
:1011A000254003F0030C4FEA8C0C0F2505FA0CF7D1
:1011B0003C401D4DA842BAD005F58065A8420DD02F
:1011C00005F58065A8420BD005F58065A84209D0D9
:1011D00005F58065A842A8D00725A9E70125A7E75E
:1011E0000225A5E70325A3E7104C256825EA060597
:1011F0002560656825EA06056560A56825EA060597
:10120000A560E56825EA0605E560064E0EF10204D4
:1012100056F8245025EA070546F824508CE7F0BD1F
:10122000704700BF0038014000000240003C014010
:101230000AB18161704709048161704708B5021ED7
:1012400018BF01224FF400510148FFF7F1FF08BD1C
:101250000008024008B5104A1368013313600F4BB1
:101260001B68022B0AD9032B14D10B4B186810F002
:10127000010000D0FF20FFF7E1FF0BE053B1064B68
:101280001868C0B21B6813F4807F01D0C043C0B29D
:10129000FFF7D4FF08BD00BFD0220020CC220020E1
:1012A000094B1B69002B01DB00207047064B074AE6
:1012B0005A6002F188325A601B69002B01DB002062
:1012C00070470120704700BF003C02402301674582
:1012D000034A136943F0004313610020704700BFC5
:1012E000003C0240074B5B6913F0010F07D0054B30
:1012F000054A9A6002F144329A600020704701204A
:10130000704700BF003C02403B2A1908034A53695A
:1013100043F0010353610020704700BF003C0240CE
:1013200010B40A490C6924F440740C610C6944F44B
:1013300040740C610C6944F001040C610260BFF35D
:101340006F8F43605DF8044B704700BF003C024064
:10135000074B1A6922F440721A611A6942F400724A
:101360001A611A6942F001021A610160704700BFF8
:10137000003C0240074B1A6922F440721A611A6954
:1013800042F480721A611A6942F001021A61018006
:10139000704700BF003C0240064B1A6922F44072BD
:1013A0001A611A691A611A6942F001021A61017020
:1013B000704700BF003C0240274BDB6813F0100F62
:1013C00007D0264AD36943F01003D361224B102281
:1013D000DA60214BDB6813F0200F07D01F4AD36976
:1013E00043F00803D3611C4B2022DA601A4BDB6800
:1013F00013F0400F07D0194AD36943F00403D361B7
:10140000154B4022DA60144BDB6813F0800F07D0D5
:10141000124AD36943F00203D3610F4B8022DA6092
:101420000D4BDB6813F4807F08D00C4AD36943F07E
:101430000103D361084B4FF48072DA60064BDB681E
:1014400013F0020F07D0054AD36943F02003D3619C
:10145000014B0222DA607047003C0240AC080020D9
:1014600038B50446144B0022DA61FFF7A9F90546A6
:10147000124BDB6813F4803F0AD0B4F1FF3FF7D082
:1014800024B1FFF79DF9401BA042F1D903200DE0E4
:101490000A4BDB6813F0010F02D0084B0122DA601F
:1014A000064BDB6813F4F97F01D1002038BDFFF74C
:1014B00083FF0120FAE700BFAC080020003C024097
:1014C000F8B516461B4A127E012A30D004460D4656
:1014D0001F46184B01221A764CF25030FFF7C0FF1E
:1014E00090B9ACB1012C18D0022C1BD032463B462F
:1014F0002846FFF715FF4CF25030FFF7B1FF0E4AB8
:10150000136923F0010313610A4B00221A76F8BD18
:10151000F1B22846FFF740FFEDE7B1B22846FFF7EA
:1015200029FFE8E731462846FFF712FFE3E70220EC
:10153000EDE700BFAC080020003C024008B5054ABA
:10154000137D43F0020313754CF25030FFF788FF10
:1015500008BD00BF003C0240012905D0022906D089
:1015600039B14FF4407104E04FF4807101E04FF461
:1015700000710B4B1A6922F440721A611A690A430E
:101580001A611A6922F0F8021A611A6942EAC00067
:1015900040F0020018611A6942F480321A61704703
:1015A000003C024010B504464CF25030FFF758FFA3
:1015B00028B9034AD38A9BB223EA0403D38210BD1D
:1015C000003C024010B504464CF25030FFF748FF93
:1015D00028B9034AD38A9BB2A4B22343D38210BD55
:1015E000003C024010B504464CF25030FFF738FF83
:1015F00008B9014B5C7510BD003C0240F8B50446CB
:101600000E4615464CF25030FFF72AFF48B9054FF9
:101610003B7D03F01F0343EA060141EA0502224332
:101620003A75F8BD003C0240044B1A7D02F0F3020B
:101630001A751A7D02431A7500207047003C02405B
:101640001F4B1B7E012B38D010B504461C4B0122CA
:101650001A76036813F0010F0CD04368934204D04C
:10166000C1688068FFF7AEFF05E0C1688068FFF7DA
:1016700099FF00E00120236813F0020F0BD12368CB
:1016800013F0040F0BD1236813F0080F11D10C4B8A
:1016900000221A7610BD207CFFF7A4FFEFE7207E22
:1016A00000F0800200F0400100F02000FFF7A6FFEC
:1016B000E9E7207DFFF7B8FFE9E70220704700BFA8
:1016C000AC080020024B586900F0E000704700BFF2
:1016D000003C0240014BD88A80B27047003C024077
:1016E000054B5B7DD8B2CC2B05D0034B5B7DD8B2CC
:1016F000AA2B00D055207047003C0240024B187DB9
:1017000000F00C00704700BF003C024010B50446DA
:101710000F230360FFF7DEFFA060FFF7E1FF20610A
:10172000FFF7D0FF2076FFF7E9FF606110BD0346A9
:1017300080B1242280F839200168CA6822F400525E
:10174000CA600020D86383F8390083F83A0083F830
:10175000380070470120704770B5204C25686668D6
:101760004FF400511E48FFF7DBFC1E48FFF7DFFF78
:1017700048F208011C48FFF7D3FC1C4B5A6C22F0BE
:1017800010025A641A6B22F001021A631A6B22F0DB
:1017900002021A631A6B22F004021A631A6B22F017
:1017A00008021A634FF0E02300221A615A619A611D
:1017B00003F580734FF0FF32C3F88020C3F8842014
:1017C000C3F88820C3F88C2003F540639C6085F340
:1017D000088885F30988304770BD00BF0000010804
:1017E00000080240E80800200000024000380240E3
:1017F0002DE9F84305460F4616469946DDF8208048
:101800002B681C6837EA04040CBF01240024B4428E
:101810001FD1B8F1FF3FF3D0B8F1000F05D0FEF7AC
:10182000CFFFA0EB09004045EAD92A68D36823F42A
:10183000D073D3602A68536923F0010353612023D6
:1018400085F8393085F83A30002385F838300320A0
:1018500000E00020BDE8F8832DE9F04383B01E4688
:1018600090F83930202B56D104460D469046002979
:1018700055D0002A55D090F83830012B53D0012391
:1018800080F838304FF00009C0F83C90212380F8F0
:101890003930FEF795FF0746A4F82480A4F8268087
:1018A00084F8389010E000963B46002280212046C4
:1018B000FFF79EFF002838D12B882268C3F3080366
:1018C00053602369CBB90235E38C9BB2BBB1E28C88
:1018D00092B2013A92B2E284A368B3F5805FE2D09B
:1018E00000963B46002280212046FFF781FFF0B999
:1018F00015F8012B23685A60E6E70135E4E7009606
:101900003B46002240212046FFF772FF88B9202382
:1019100084F8393000E0022003B0BDE8F0830120F4
:10192000FAE70120F8E70220F6E70320F4E70320B6
:10193000F2E70320F0E7000010B50C464FF6FF7306
:101940008AB201460248FFF787FF204610BD00BF5C
:10195000E808002010B504460268136923F44053D8
:10196000C1680B431361836802691A4343691A43D0
:10197000C3691A430168CB6823F4164323F00C03B0
:101980001343CB600268536923F4407381690B43AE
:101990005361C369B3F5004F24D00368434A9342AF
:1019A00066D002F58062934262D0FFF7C3FA192134
:1019B00063689A009B0FA0FB0101FEF749FC6422BB
:1019C000B0FBF2F102FB11031B013233B3FBF2F364
:1019D000206803F0F00202EB011203F00F0313443E
:1019E000836061E00368314A934222D002F580624D
:1019F00093421ED0FFF79EFA0023192162689218C5
:101A00005B41A0FB0101FEF723FC6422B0FBF2F175
:101A100002FB1103DB003233B3FBF2F320685A0000
:101A200002F4F87202EB011203F00703134483601F
:101A30003AE0FFF78FFA00231921626892185B41A0
:101A4000A0FB0101FEF704FC6422B0FBF2F102FBF3
:101A50001103DB003233B3FBF2F320685A0002F4C7
:101A6000F87202EB011203F00703134483601BE0DA
:101A7000FFF770FA192163689A009B0FA0FB010120
:101A8000FEF7E6FB6422B0FBF2F102FB11031B013F
:101A90003233B3FBF2F3206803F0F00202EB0112E1
:101AA00003F00F031344836010BD00BF001001401A
:101AB00048B310B5044690F839300BB3242384F8AA
:101AC00039302268D36823F40053D3602046FFF7EF
:101AD00041FF2268136923F490431361226853691C
:101AE00023F02A0353612268D36843F40053D36080
:101AF0000020E063202384F8393084F83A3010BDA8
:101B000080F83830DAE7012070470000002800F044
:101B1000C78070B5044690F83D30002B75D0242363
:101B200084F83D302268136823F0010313602268B3
:101B3000136843F4004313602268136823F40043DE
:101B40001360FFF7F7F96268574B9A4260D8574B1A
:101B500098428CBF00230123002B40F0A380544BFC
:101B6000B0FBF3F321684A6822F03F021A434A604F
:101B700021680A6A22F03F0266684B4DAE424DD89A
:101B8000013313430B622168CA6922F44F4222F0E9
:101B9000FF026568444B9D424AD8431E6D00B3FB6B
:101BA000F5F3013340F6FC70034275D0C3F30B0329
:101BB0001A43CA6121680A68E369206A034322F074
:101BC000C00213430B6021688A682369E0680343FD
:101BD00022F4034222F0FF0213438B602168CA689B
:101BE0006369A069034322F0FF021343CB602268BC
:101BF000136843F00103136000202064202384F85D
:101C00003D30206384F83E0070BD80F83C3086E7AC
:101C1000284B98428CBF002301239DE74FF4967513
:101C200005FB03F34FF47A75B3FBF5F30133A8E733
:101C3000A668BEB9431E05EB450CB3FBFCF30133AC
:101C4000C3F30B03B3FA83F35B093BBBC6B9431E73
:101C500005EB4505B3FBF5F30133C3F30B0343F485
:101C60000043A5E7431E4FF0190C0CFB05FCB3FB2A
:101C7000FCF30133C3F30B03B3FA83F35B09E4E72B
:101C8000431E192000FB05F5B3FBF5F30133C3F345
:101C90000B0343F440438BE7042389E7012387E7E1
:101CA000012070470120AFE7A08601007F841E005D
:101CB00040420F00FF083D002DE9F04107460D4668
:101CC00090461E4624E0FEF77BFD069BC01AB042FC
:101CD00000D8EEB900233B63202287F83D2087F827
:101CE0003E303A6C42F020023A6487F83C300120E2
:101CF0001EE03B689C6925EA040C1FFA8CFCBCFAC8
:101D00008CFC4FEA5C1CE04511D1B6F1FF3FDAD103
:101D1000C5F30743012BECD13B685B6925EA030C53
:101D20001FFA8CFCBCFA8CFC4FEA5C1CEBE7002031
:101D3000BDE8F0812DE9F04385B004468846914620
:101D40001D46FEF73DFD94F83D30202B03D00220C8
:101D500005B0BDE8F08306460090192301225749DB
:101D60002046FFF7A9FF002840F09F8094F83C3000
:101D7000012B00F09C80012384F83C3023681A6812
:101D800012F0010F03D11A6842F001021A602268B2
:101D9000136823F400631360242384F83D30002388
:101DA0002364A3F58033E36201273DE023681B68C9
:101DB00013F4807F02D04FF4007323640320C7E73D
:101DC000A02384F83D3022685369C3F3400352696D
:101DD000C2F3802294F83D10A02909D043B93AB942
:101DE000FEF7EEFC801BA842EAD8002DEBD1E7E716
:101DF000202384F83D3023685A6912F0020F31D154
:101E00001A6842F400721A6023686FF480625A61A3
:101E100000961923012229492046FFF74DFF00288B
:101E200049D101374F4538D22268136843F4807393
:101E3000136000962B4600224FF001112046FFF759
:101E40003BFF0028B2D1236808F0FE021A61FEF7BA
:101E5000B7FC064622685369C3F340035269C2F3D4
:101E60008022B7E71A6842F400721A6000230393D5
:101E700023685A6903929B690393039B0096192375
:101E800001220E492046FFF717FF90B9202384F85E
:101E90003D30002384F83C305AE7202384F83D305D
:101EA000002384F83C30012052E7022050E7022052
:101EB0004EE701204CE701204AE700BF0200100076
:101EC0002DE9F04105460E46174698463DE01A6852
:101ED00042F400721A602B686FF480625A6100232A
:101EE0002B63202285F83D2085F83E302A6C42F095
:101EF00004022A6485F83C30012034E0FEF760FCDF
:101F0000A0EB0800B84200D8FFB900232B632022C1
:101F100085F83D2085F83E302A6C42F020022A6484
:101F200085F83C3001201EE02B689C6926EA0404F9
:101F3000A4B2003C18BF0124A4B12B685A6912F462
:101F4000806FC4D1B7F1FF3FD8D1C6F30743012B4F
:101F5000EAD12B685C6926EA0404A4B2003C18BFED
:101F60000124E9E70020BDE8F08103685A6912F412
:101F7000806F01D1002070476FF480625A610023A6
:101F80000363202280F83D2080F83E30026C42F04E
:101F90000402026480F83C300120704770B50446AA
:101FA0000D46164623685B6913F0800F1CD120464E
:101FB000FFF7DBFFD0B9B5F1FF3FF3D0FEF700FC30
:101FC000801BA84201D8002DECD1002323632022DE
:101FD00084F83D2084F83E30226C42F020022264D6
:101FE00084F83C30012000E0002070BD0120FCE7B7
:101FF0002DE9F04385B004460D4691461F46DDF8B5
:1020000030800D9E0368196841F480711960009654
:10201000434600224FF00111FFF74EFE60B92368DE
:1020200005F0FE051D613346424626492046FFF76E
:1020300047FF68B1012008E023681B6813F4807F24
:1020400002D04FF400732364032005B0BDE8F08391
:102050000023039323685A6903929B690393039BAC
:10206000324641462046FFF799FF30B9012F0FD184
:1020700023685FFA89F61E61E7E7236C042B01D021
:102080000120E2E72268136843F400731360F7E766
:1020900023684FEA19221A61324641462046FFF76B
:1020A0007DFF20B923685FFA89F61E61CDE7236CB6
:1020B000042B01D00120C8E72268136843F40073A1
:1020C0001360F7E70200010070B504460D4616469E
:1020D00023685B6913F0040F1CD12046FFF745FF0E
:1020E000D0B9B5F1FF3FF3D0FEF76AFB801BA842E1
:1020F00001D8002DECD100232363202284F83D2059
:1021000084F83E30226C42F02002226484F83C3095
:10211000012000E0002070BD0120FCE72DE9F04324
:1021200083B004460F46904699460C9EFEF748FB46
:1021300094F83D20202A03D0022003B0BDE8F083AC
:1021400005460090192301224A492046FFF7B4FDB5
:10215000002840F0898094F83C30012B00F0868004
:10216000012384F83C3023681A6812F0010F03D170
:102170001A6842F001021A602268136823F40063AF
:102180001360212384F83D30402384F83E3000233F
:1021900023640A9B6362BDF82C306385638D2385BD
:1021A000354BE362019500964B4642463946204640
:1021B000FFF71EFF00285BD1238D002B35D02A4668
:1021C00031462046FFF7EAFE20BB626A2368127898
:1021D0001A61626A531C6362218D013989B22185BB
:1021E000638D9BB2013B9BB263852368586910F0F5
:1021F000040FE1D00029DFD052781A61636A0133FD
:102200006362238D013B2385638D9BB2013B9BB2AF
:102210006385D1E7236C042B01D001208DE7226870
:10222000136843F400731360F7E72A4631462046EB
:10223000FFF74AFF50B1236C042B01D001207CE74B
:102240002268136843F400731360F7E72268136889
:1022500043F400731360202384F83D30002384F896
:102260003E3084F83C3068E7022066E7022064E7ED
:10227000012062E7020010000000FFFF802070478D
:10228000402070478020704740207047014B5871B4
:10229000704700BFA408002070B505460C46184BD7
:1022A0005E79FFF7EFFF85421AD2FFF7EDFF844218
:1022B00016D2134B1B7913B1B6FA86F67609012EA6
:1022C0000FD0FFF7DBFFE30800FB03550D494A5D24
:1022D00004F007040123A340DB435BB213404B55DA
:1022E00070BDFFF7CBFFE30800FB035005490B5C13
:1022F00004F007040122A24013430B54F0E700BF8F
:10230000A4080020A40400202DE9F04782B08146F3
:1023100002AB03E90600FFF7B1FF274B1B889DF8CE
:1023200000703B44984243DDFFF7AAFF224B5B88D5
:102330009DF801A0534498423CDD002625E01E4D47
:102340006B79B3FA83F35B096B7128886988314430
:102350002044C9B2C0B2FFF79FFF6B79B3FA83F391
:102360005B096B710134A7420ED908FA04F313F428
:10237000004FE4D0104B1888598831442044C9B22A
:10238000C0B2FFF789FFEDE70136B24508D9A9F1E0
:10239000200303FB0A63019A32F813800024E2E76A
:1023A000054A13883B441380484602B0BDE8F087D5
:1023B0000020FAE70020F8E7A408002010B582B05A
:1023C000044602AB03E9060000E00134207840B186
:1023D00002AB13E90600FFF797FF0346207883421C
:1023E000F3D002B010BD0000014B18805980704737
:1023F000A408002000B587B08DF817000A230293C7
:10240000012301930DF11702009200227821034865
:10241000FFF784FE07B05DF804FB00BF2809002029
:1024200000B585B0642302930191009001234022FE
:1024300078210348FFF772FE05B05DF804FB00BF8A
:102440002809002038B5002414E0A4F15000C0B2DF
:10245000FFF7D0FF0020FFF7CDFF1020FFF7CAFFE6
:10246000E501FFF70BFF014604482844FFF7D8FFBA
:102470000134E4B2072CE8D938BD00BFA404002021
:10248000002807DB00F01F02400901239340024AA5
:1024900042F82030704700BF00E100E000280CDB6C
:1024A00000F01F024009012393402030034A42F804
:1024B0002030BFF34F8FBFF36F8F704700E100E014
:1024C00059BB1E4B1B681E4A93421FD21D4A9342A2
:1024D00024D81D4A934223D21C4A934222D8A2F503
:1024E000DB12A2F5BA5293421ED8A2F5B712A2F59A
:1024F000587293421AD8164A934219D2154A9342F7
:1025000018D2154A934217D30E2200E00622C36860
:1025100023F4705343EA8223C36070470722F6E72F
:102520000822F4E70922F2E70A22F0E70B22EEE79D
:102530000C22ECE70D22EAE70F22E8E788000020F2
:102540000048E801DF9DA30100366E013FA44C0165
:10255000807306010024F400C0E1E40030B40001FF
:10256000214B1C588B7803F07F02DD098888C0F36B
:102570000A004FEA420C0CEBD31C1C4B03EB0C1370
:10258000588191F806C083F80CC0C97801F00303A4
:102590009B0401F00301012915D04FF080510B433A
:1025A000034343F4004385B902F1580149016350E4
:1025B000D4F81C3802F1100101228A401343C4F8F8
:1025C0001C3830BC70470021E9E743EA825302F12E
:1025D000480149016350D4F81C38012101FA02F284
:1025E0001343C4F81C38ECE74C7E0008200400209C
:1025F00030B400013A4B1B5801F07F00C90912D1D9
:1026000003F5306128B1440101EB401C0D59002D48
:1026100045DB40010B58002A3FD04FF40012134312
:102620000B5030BC704703F5106C30B145010CEB1A
:1026300040115CF80540002C14DB44015CF80410E8
:102640006AB14FF002620A434CF80420800140F066
:10265000200018611A6912F0200FFBD1E1E74FF05A
:102660000062F0E75CF8054044F000644CF8054077
:102670008C6814F0400FFBD05CF8054052B1194A49
:1026800022434CF805208A6812F0020FFBD0022288
:102690008A60DBE74FF08042F2E70022BFE7D3F821
:1026A000040840F40070C3F80408586910F0800F63
:1026B000FBD008598AB10B4A02430A51DCF80820C2
:1026C00012F0020FFAD00222CCF80820D3F8042826
:1026D00042F48062C3F80428A3E74FF08042EBE79E
:1026E0004C7E000800002040F0B5BDF81440000109
:1026F0003F4D2D58084671B93E4F37F8121002EB86
:1027000040063D4C04EB061464898C4228BF0C46FD
:10271000091B27F81210012A20D005F530614FEA75
:10272000401E01EB401CDCF8106006F06046CCF85F
:102730001060DCF8106044EAC3443443CCF8104025
:1027400051F80E3043F0044341F80E3051F80E308A
:1027500003F44023B3F5802F32D0F0BD05F51061AE
:10276000460101EB401744EAC3433B618B5943F0F8
:1027700004438B518B5903F44023B3F5802F09D0C8
:10278000002CEAD0D5F83438012282401343C5F832
:102790003438E2E702EB4002174B03EB02131B7BDA
:1027A000012BEDD1D5F808288B5912F4807F04D085
:1027B0004FF0805213438B51E2E74FF00052F9E79C
:1027C00002EB40020C4B03EB02131B7B012BC4D129
:1027D000D5F8082851F80E3012F4807F05D04FF05C
:1027E0008052134341F80E30B7E74FF00052F8E73C
:1027F0004C7E00081804002020040020036943F0E8
:1028000001030361036913F0010FFBD10369002B7E
:10281000FCDA70470020704710B50446C36843F0E7
:102820004003C360836B43F480338363FFF7E6FFA9
:10283000E36823F4705343F4A053E360002120467F
:10284000FFF73EFED4F8003843F00303C4F8003825
:1028500010BD38B50446C56890F8483003F0C00391
:10286000802B08D025F0580590F851303F2B08D91F
:1028700045F0080505E025F4681525F0C80545F084
:102880001005E56094F848309B0923D1A36B43F40D
:102890008033A3632046FFF7B1FF25F4705594F809
:1028A00051303F2B1BD94FF4A0532B43E36094F8D6
:1028B000481089092046FFF703FED4F8003823F0BA
:1028C000030394F8482002F0C002802A0AD0C4F81A
:1028D000003838BDA36B23F48033A363DAE74FF4E9
:1028E0001053E2E743F48043F1E7000008B5044BDE
:1028F00003EB001393F90400FFF7C2FD08BD00BF0E
:102900004C7E000808B5044B03EB001393F9040058
:10291000FFF7C4FD08BD00BF4C7E000808B520B11C
:10292000044B1878FFF7E2FF08BD024B1878FFF759
:10293000E9FFF9E79C0000200001044B1A58D2F887
:10294000043823F00203C2F8043870474C7E0008B4
:102950000001044B1A58D2F8043843F00203C2F8BD
:10296000043870474C7E00080001084B1B58084A89
:10297000117031B108225A619A6942F008029A61D5
:1029800070479A6922F008029A6170474C7E0008ED
:102990001C04002010B5284B020103EB00109B58CB
:1029A00090F808C04FF00112C3F81C2801220EE075
:1029B00002F1580040011C5844F090441C500FE0B4
:1029C0001E4800EB4111002048830132D2B262451B
:1029D0001BD2114602F15800400118580028E7DBCD
:1029E000164800EB41104FF0000EA0F80AE001F18C
:1029F0004800400118587045E2DA01F148004001F2
:102A00001C5844F090441C50DAE74FEA4C0C0CF18F
:102A10002F025A620A4A102111804FF484621A610F
:102A20001A6912F0200FFBD110221A611A6912F0F4
:102A3000100FFBD110BD00BF4C7E00082004002009
:102A4000A004002070B582B08E4616461C4601F0E8
:102A50007F014FEADE12184B4FEA410C0CEBDE1CF3
:102A60004FEA0C1503EB0C1C5E510023CCF804302C
:102A7000ACF80840B9B102EB41050F4B03EB05136D
:102A80005D89B4FBF5FC1FFA8CF305FB1C4C1FFAA7
:102A90008CF505B90CB901339BB20094FFF724FE05
:102AA000012002B070BD054B23F8124000940123B1
:102AB000FFF71AFEF4E700BF2004002018040020EE
:102AC00008B50301074AD258D2F8003823F4FE6350
:102AD00043EA0113C2F8003800231A468021FFF7A9
:102AE000B1FF08BD4C7E000808B50122FFF780FD4C
:102AF00008BD000038B501F07F05CC090A4B1878F5
:102B0000FFF7F2FF094B03EB4503234493F8202022
:102B100042F0020283F8202093F8202042F00102C4
:102B200083F8202038BD00BF9C000020201A002020
:102B300038B505460C4681F82C208B688A6B9B1AA9
:102B40008B62022381F8303091F83C3063B1A36886
:102B50004BB1A36A3BB1237BDB090BD094F82E1059
:102B60002846FFF7C7FF38BD20220521607BFDF70F
:102B70000FFDECE794F82F102846FFF7BBFFF2E7B4
:102B800000010E4B1A5801F07F03C9090AD15833CE
:102B90005B01D15821F40011D150D15841F080513E
:102BA000D150704748335B01D15821F40011D15006
:102BB000D15841F08051D150704700BF4C7E000881
:102BC00038B501F07F05CC090A4B1878FFF7D8FF1C
:102BD000094B03EB4503234493F8202022F0020223
:102BE00083F8202093F8202022F0010283F820208F
:102BF00038BD00BF9C000020201A002010B4000146
:102C0000114B1C58900805E004F58050006841F80D
:102C1000040B1846431E9BB20028F5D1D0B212F027
:102C200003020ED004F5805423680B7010F0020FDD
:102C300002D0C3F307204870022A02D9C3F3074326
:102C40008B705DF8044B70474C7E000810B5000196
:102C5000124C245801F1010C4FEA0C3E04EB0C3CE1
:102C6000990804E052F8041BCCF800100146481EF5
:102C700080B20029F6D1D8B213F003030DD0117839
:102C800010F0020F02D0507841EA0021022B02D945
:102C9000937841EA034144F80E1010BD4C7E0008C1
:102CA00030B589B00D4696461C46184B0DF1140CF4
:102CB00093E80700ACE803008CF80020144B0DF1FA
:102CC000040C0FCBACE807002CF8023B1B0C8CF873
:102CD0000030104B009305AB03CB286069600DF109
:102CE000040CBCE80700CEF80000CEF80410CEF8C3
:102CF0000820BCF80030AEF80C30BDF800209DF87C
:102D000002302280A37009B030BD00BFA07500085A
:102D1000AC750008312E300010B582B0940803E085
:102D20000C6840F8044B1C46631E9BB2002CF7D184
:102D300012F0030201D102B010BD0B68019301A98A
:102D400003F082FBF7E730B583B00546940803E053
:102D500051F8044B2C601C46631E9BB2002CF7D12B
:102D600012F0030201D103B030BD0023019301A88A
:102D700003F06AFB019B2B60F5E72DE9F04782B079
:102D800005460E469DF828E0B0F804C0ACEB030100
:102D900089B2A3EB0C0C94441FFA8CFCC088C0F3DE
:102DA0000E0919FB01F7BFB219FB0CFC1FFA8CFAD4
:102DB0002C6809FB0348BEF1000F05D0BEF1010FDE
:102DC00017D002B0BDE8F0874846914206D300FB19
:102DD00002F23146404603F037FBF2E73A4631460D
:102DE000404603F031FB5246F119286803F02CFBF2
:102DF000E7E7914207D319FB02F292B2314640460F
:102E0000FFF78AFFDDE727F003021FFA82F94A463F
:102E100031464046FFF780FF08EB090217F0030038
:102E20002AD0C0F10407BFB2574528BF5746FFB2AA
:102E3000AAEB070C1FFA8CFA3368019301A904E08E
:102E400011F8010B02F8010B1846431EDBB20028F3
:102E5000F6D1286804E011F8012B00F8012B1F4679
:102E60007B1EDBB2002FF6D1BAF1000FA9D052467B
:102E70003146FFF751FFA4E72868F5E72DE9F04355
:102E800083B09146002A60D0044688461F460689D2
:102E9000B6B2B0F80AC01FFA8CF1C379DB091BD1B6
:102EA00085888E4210D3A6EB010C1FFA8CFC654579
:102EB00050D9A5EB0C05ADB24D4528BF4D46002DB0
:102EC00044D0A288334631E0A6EB010C6B0013FA24
:102ED0008CFC1FFA8CFCEAE78588954209D8FFB97B
:102EE000A2EB0509C388C3F30E0303FB09880E4652
:102EF000E5E78E420ED3731A9BB24B44B3EB450FFA
:102F000010DBA5EB090292B22846FDF7CCFA064683
:102F10004D46D4E7731A6A0012FA83F39BB2ECE7CA
:102F20000E46CCE74D46CAE79B1A9BB29A42FBD9A4
:102F300000972A4641462046FFF71FFF2A463146A2
:102F4000A088FDF7B0FA208100E01546284603B0BE
:102F5000BDE8F0830025F9E708B50123FFF78EFFF0
:102F600008BD00002DE9F04103013F4AD5582C6A05
:102F7000C4F3434304F00F06C4F30A14013B052BCA
:102F800069D8DFE803F00A154D0C680305F5805594
:102F90002A68364B1A602A685A60BDE8F08105EB52
:102FA0004615D5F8103B43F0C043C5F8103BF4E795
:102FB00005F580512E4B03EB46135B6813B3224695
:102FC0001846FFF7C9FF2A4B03EB46135B89A34260
:102FD000E3D905EB4615D5F8101BC1F31201244ABD
:102FE00002EB461213895B1A9BB21381002ED4D1D7
:102FF000204908881E4A02EB46121B1A138100233F
:103000000B80CAE7DFF868807701224658F807107E
:10301000FFF7F4FD58F80730234448F80730D2E7AB
:10302000002EBAD1002CB8D12A6C134B9A42B4D9D5
:1030300005EB4613D3F8083B48F220021342ACD00C
:1030400013F0200F05D1012305EB4615C5F8083B09
:10305000A3E72123F8E74FF0E023D3F8F03D13F086
:10306000010F9AD000BE98E74C7E000810040020A3
:1030700020040020180400200930544F2DE9F047A7
:1030800082B005460E469DF828E0B0F804C0ACEBCF
:10309000030080B2A3EB0C0C94441FFA8CFCE9886B
:1030A000C1F30E0919FB00F7BFB219FB0CFC1FFAA4
:1030B0008CFA2C6809FB0348BEF1000F05D0BEF165
:1030C000010F17D002B0BDE8F0874946904206D301
:1030D00001FB02F24146304603F0B6F9F2E73A4608
:1030E0004146304603F0B0F952462968F01903F022
:1030F000ABF9E7E7904207D319FB02F292B24146DF
:103100003046FFF720FEDDE727F003021FFA82F9C1
:103110004A4641463046FFF716FE08EB090217F013
:1031200003012CD0C1F10407BFB2574528BF574651
:10313000FFB2AAEB070C1FFA8CFA0023019301A837
:1031400004E012F8011B00F8011B19464B1EDBB20C
:103150000029F6D1296804E011F8012B00F8012BB1
:103160001F467B1EDBB2002FF6D1019B3360BAF104
:10317000000FA7D052463046FFF7E5FDA2E72968C9
:10318000F5E730B583B09E46BDF81830B0F804C0FE
:103190009E4511D3AEEB0304A4B224B3A44507D2D9
:1031A000F44511D8AEEB0C0E1FFA8EF34381644642
:1031B000944210D314460EE0AEEB03044FEA4C05E4
:1031C00015FA84F4A4B2E8E7E6441FFA8EF3EDE7BB
:1031D000A3EB0C039BB29C45FAD99DF81C200092EE
:1031E0002246FFF74BFF204603B030BD30B583B019
:1031F0000446B0F808C04589ADB2019300951FFAA6
:103200008CF3FFF7BEFF05466189024689B2A088AC
:10321000FDF749F96081284603B030BD08B50123A8
:10322000FFF7E4FF08BD10B586460846BEF804C0A7
:103230009A420CD3D41AA4B224B3A44514D2944510
:103240000CD8A2EB0C0293B2AEF80A300CE0D41A00
:103250004FEA4C0111FA84F4A4B2EDE7624493B250
:10326000F2E7A3EB0C039BB29C45FAD9DEF8001001
:10327000BEF80620C2F30E0202FB031103F0E4F8CD
:10328000012010BD0020FCE738B5044602894389BF
:103290009BB292B2FFF7C7FF05466189024689B229
:1032A000A088FDF700F96081284638BD70B5044656
:1032B0000E460589ADB2FDF703F910B1E079C009FA
:1032C00016D0A2882B4601E09B1A9BB29A42FBD9EA
:1032D0002068E288C2F30E02314602FB030003F0CD
:1032E000B3F801222946A088FDF7DDF820810120EE
:1032F00070BD08B50B460146184603F0A5F808BD99
:1033000038B5FDF702FA0546164B1860030A5B0252
:10331000154A13641548FCF743FF0446C0F5BF7314
:103320000133082B04D8104B1C61FCF7FFFF38BD9C
:103330000E4901442846FDF743F804F10802C4F59C
:10334000BB730133062B01D81446ECE7074D511926
:10335000074B1868A8509A889B798A808B710E3425
:10336000E1E700BFD42200209802002018010020CD
:10337000BC75000870B588B078B103281BD004284C
:1033800057D82D4A52F820502846FCF709FFC4B2FE
:10339000302C00D93024002348E0284B40F2094269
:1033A0005A800124631C5B009BB2244843F44073A1
:1033B000038008B070BD6846FDF726F90546440055
:1033C000E4B24FF0000E03E00EF1010E5FFA8EFE44
:1033D000AE45E7D24FF0000CBCF1010FF4D8184B0A
:1033E0000FCB08AE06E90F000EF120036B4413F873
:1033F000203C4FEA8C02134103F00F034FEA4E02C8
:103400000132CCF101010A4420336B4413F8101C43
:103410000A4B23F812100CF1010C5FFA8CFCDBE76D
:103420005A1CE95C054B23F81210D3B29C42F7D822
:10343000B8E70020BDE700BF548000084C1A002008
:103440008C7500082DE9F04105460C464FF40072DA
:103450000021204602F0EDFFE5B97C4D264605F13E
:103460003007AC46BCE80F0030607160B260F360BA
:1034700065461036BC45F4D107CD30607160B2604E
:103480002B88B381552384F8FE31AA2384F8FF31B9
:10349000BDE8F081B5F5017F37D86E1EB6F5817FA6
:1034A00001D3A5F203163102694BB3F8460001308F
:1034B000002304E0013224F8132001339BB2FF2BD8
:1034C00006D85A189042F5D8002224F81320F4E7C1
:1034D00036B9F8232370FF2363704FF6FF736380C0
:1034E000002300E00133022BD2D803EB4300584AFB
:1034F00002EBC002D28A9142F4D8521AFF2AF1D8C4
:103500004FF6FF7024F81200ECE7B5F5027F44D8BF
:10351000A5F205251DB12D01013D102710E00B225C
:103520004C492046FCF770FF2823E37220340F2714
:1035300006E0494B1B681B0A5B02E361013520343E
:10354000002FA5D0022DA3D805EB4503404E06EB76
:10355000C306B6F814800B2231462046FCF754FF10
:10356000642363736FF05A00A0736FF07401E1730A
:10357000742222745B236374A274E3744FEA184CC0
:10358000A4F814C0A075E17522766376A4F81A80B9
:10359000F368002BCDD03369CFE7304B9D423FF627
:1035A00077AFA5F20926A5F20720FCF7E9FE00EBAC
:1035B0004002274B03EBC2039B8AF31A991C022893
:1035C00019D04D02224B03EBC2031A69B2EB412F13
:1035D0007FF65EAF00EB40001D4B03EBC003D968E4
:1035E0002944521BB2F5007F01D94FF400722046E6
:1035F00002F02AFF4CE703F5002303F5817318025C
:10360000154A126802F10065B5EB032F7FF640AF53
:10361000134B236003F1144303F52C1303F6023319
:103620006360104BC4F8FC316161120AA261E06072
:103630004FF4807222614FF40053A3600A4BE361A0
:1036400004F12001FFF755FE22E700BFD80000205B
:103650009802002003010020D4220020080101006C
:103660005546320A306FB10A575A7557034B00223C
:103670001A605A609A60DA601A617047FC1900207B
:1036800008B540220021024802F0D3FE08BD00BF69
:103690007C19002008B540220021024802F0C9FE32
:1036A00008BD00BF7C19002008B54FF480620021DE
:1036B000014802F0BEFE08BDA404002010B54FF47E
:1036C0007A73052278213248FEF734FB18B10020C6
:1036D000304B987110BDAE20FEF78CFED520FEF762
:1036E00089FEF020FEF786FEA820FEF783FEFEF797
:1036F000C7FD0138C0B2FEF77DFED320FEF77AFE8B
:103700000020FEF777FE4020FEF774FE8D20FEF7C6
:1037100071FE1420FEF76EFE2020FEF76BFE0020E7
:10372000FEF768FEA020FEF765FEC020FEF762FEF1
:10373000DA20FEF75FFE1220FEF75CFE8120FEF726
:1037400059FECF20FEF756FED920FEF753FEF1209A
:10375000FEF750FEDB20FEF74DFE4020FEF74AFE4E
:10376000A420FEF747FEA620FEF744FE2E20FEF71B
:1037700041FEAF20FEF73EFE064C0023238063800F
:103780006371FFF791FFFEF75DFE0120A071A1E7D5
:1037900028090020A408002038B5334B020103EBB0
:1037A00000109C58057A80220021304802F041FE2A
:1037B00000232F4A1370D4F8002822F4FE62C4F8C4
:1037C000002808E003F158025201A15841F00061BD
:1037D000A1500133DBB2AB42F4D3002308E003F184
:1037E00048025201A15841F09041A1500133DBB28F
:1037F000AB4206D203F148025201A258002AF5DA80
:10380000EDE74FF484632361236913F0200FFBD1AC
:1038100010232361236913F0100FFBD14FF0011324
:10382000C4F81C380923C4F81438C4F810386D00E3
:103830002F3565620F4B10221A800F4BA362D4F80C
:10384000003923F00303C4F80039084B40225A81A1
:103850005A83D4F8103B43F0C043C4F8103BA3692B
:1038600043F44023A36138BD4C7E000820040020AF
:103870001C040020A00400203001100008B5104BEB
:103880001B7A93B90E4B1B6893B10E4B1B7883B90F
:103890000B4B5A681B689A420AD30B4802F098FDFA
:1038A0000420FCF7E5FEFCF7ABFE0420FCF7E0FE8D
:1038B00008BD044B00221A700320FCF7D9FEE7E78D
:1038C000B01A0020D2000020C47500082DE9F04194
:1038D0008EB0FDF7E7FAFCF71BFFFCF7C1FE0024F2
:1038E0000094674D2B6B43F001032B632B6B03F0AC
:1038F00001030093009B01942B6B43F002032B63A5
:103900002B6B03F002030193019B02942B6B43F09A
:1039100004032B632B6B03F004030293029B0394B9
:103920002B6B43F008032B632B6B03F0080303930B
:10393000039B4FF40053099301230A930B93022333
:103940000C9309AE31464F48FDF714FB2046FDF7B6
:1039500075FCC023099312230A930B9403230C9341
:1039600004230D9331464848FDF704FB04942B6C67
:1039700043F400132B642B6C03F400130493049B97
:1039800022460C211F20FCF763FF1F20FCF770FF6D
:1039900022460E212020FCF75BFF2020FCF768FF69
:1039A0003A483B4B03603B4B43608460C4604FF438
:1039B0008043036144618461C4610462FEF7A6F838
:1039C000002859D0344802F003FD002405942C4B04
:1039D0005A6C42F010025A645A6C02F010020592BE
:1039E000059A06945A6C42F010025A645A6C02F01E
:1039F00010020692069A07941A6B42F001021A63AB
:103A00001A6B02F001020792079A08941A6B42F0AF
:103A100002021A631B6B03F002030893089B4FF426
:103A2000004309934FF00208CDF828800B94032738
:103A30000C9707260D9609AD29461848FDF79AFA06
:103A400008230993CDF828800B940C970D962946EE
:103A50000D48FDF78FFA1248124B03604FF4E13323
:103A600043608460C460046184610C234361FEF799
:103A70001FF80EB0BDE8F0810B4802F0A9FCA4E7E6
:103A800000380240000802400004024028090020DB
:103A900000540040A0860100D875000800000240D4
:103AA000E808002000100140E8750008F8B50E464F
:103AB00014461D46069F3A460021184602F0B9FCFE
:103AC000C4B16F220D490E4802F01AFC4FF0E023FA
:103AD000D3F8F03D13F0010F00D000BE4FF0FF30DF
:103AE0000BE029463046FFF7ADFC013605F50075C1
:103AF00004F50074BC42F4D32046F8BD6880000889
:103B0000F875000808B58388C3F30A02C37803F088
:103B10000303022B1DD0032B44D0012B5BD10229C0
:103B200005D040F2FF33934204D3012054E04FF418
:103B30008063F8E790222949294802F0E1FB4FF021
:103B4000E023D3F8F03D13F0010F00D000BE0020B9
:103B500042E0022903D0402A15D801203CE0B2F50A
:103B6000007F01D1012037E097221C491C4802F058
:103B7000C7FB4FF0E023D3F8F03D13F0010F00D066
:103B800000BE002028E09A221449154802F0B8FB34
:103B90004FF0E023D3F8F03D13F0010F00D000BE4A
:103BA000002019E0022904D04023934204D30120CD
:103BB00012E04FF48063F8E7A0220849084802F0B9
:103BC0009FFB4FF0E023D3F8F03D13F0010F00D03E
:103BD00000BE002000E0002008BD00BF40800008BB
:103BE000F875000838B50546002408E0E31A194ABC
:103BF00002EB4313DB68284698470134E4B2164BC6
:103C00001B78A34215D3A342F0D9144B1B6813EBC6
:103C10004413EFD140F216221149124802F070FB12
:103C20004FF0E023D3F8F03D13F0010F10D000BEA9
:103C30000EE00D4C2C220021204602F0FAFB4FF042
:103C4000FF336360A360E36023616361A361E361A9
:103C500038BD00BF20800008141A0020101A002070
:103C600000800008F8750008201A002008B5FFF74A
:103C7000B9FFFFF7FBFC08BD2DE9F0470746481EDA
:103C8000C0B2FCF7E7FB18B180464378022B10D096
:103C900040F2C7325749584802F032FB4FF0E02358
:103CA000D3F8F03D13F0010F00D000BE0020BDE8B6
:103CB000F087C279C2F34010504B197860F30411B9
:103CC0001970C2F38012C9B262F34511197008F17C
:103CD0000906B8F8023098446BE096F80390337800
:103CE0001E446DE040F2E2324249434802F008FBD4
:103CF0004FF0E023D3F8F03D13F0010F00D000BEE9
:103D00000020D4E7E31A3E4A02EB43131B692A461C
:103D10003146384698478246082801D985422CD238
:103D20000134E4B2374B1B78A3423ED3A342E9D916
:103D3000354B1B6813EB4413E8D140F2EB322D49AD
:103D40002D4802F0DDFA4FF0E023D3F8F03D13F0F8
:103D5000010F00D000BE0020A9E740F20A42254929
:103D6000254802F0CDFA4FF0E023D3F8F03D13F0F0
:103D7000010F00D000BE002099E7002291450DD927
:103D8000B3781344DBB21D4919440979FF29E4D102
:103D90001A490B441C710132D2B2EFE72346524656
:103DA00031461A48FCF75AFB5644164B1B78A3427F
:103DB0000ED346451CD273780B2B8ED04FF00109E1
:103DC0007378042B8ED1A8EB0605ADB20024A9E7C9
:103DD00040F219420749084802F092FA4FF0E023F6
:103DE000D3F8F03D13F0010F00D000BE00205EE7D5
:103DF00001205CE7C47F0008F8750008201A002045
:103E000020800008141A0020101A0020341A002004
:103E1000F0B585B005460E464378023B042B15D815
:103E2000DFE813F00500550028003300BD00674BA4
:103E30001A7822F001021A701A7822F002021A701F
:103E4000002159701A7861F382021A70604B1F6862
:103E500016B93B68002098472946381DFFF726FA17
:103E6000044616B93B6801209847002C00F09D805D
:103E700005B0F0BD554B1B7813F0010FF8D0534A35
:103E8000137843F004031370E0E7504B1B7813F0F2
:103E9000010FEDD04D4A137823F004031370D5E7DA
:103EA000E31A4C4A02EB4313DB6913B169682878C3
:103EB00098470134E4B2484B1B78A34209D3A3428C
:103EC000EED9464B1B6813EB4413EDD1F1E7002408
:103ED000F1E73E4B1B7813F0040F1FD03B4A1378D9
:103EE00023F00403137000230193029303932B78B0
:103EF0008DF8043005238DF80530354B1F6816B951
:103F00003B680020984701A9381DFFF7CFF9044608
:103F100016B93B6801209847002C31D02B4BDB7839
:103F200013F0010FA4D000230193029303932B7885
:103F30008DF8043003238DF805306B680293244B11
:103F40001D6816B92B680020984701A9281DFFF7A6
:103F5000ADF9044616B92B6801209847002C87D18B
:103F60004FF4AD721E491F4802F0CAF94FF0E0232A
:103F7000D3F8F03D13F0010F3FF47AAF00BE77E7BE
:103F80004FF4AD721649174802F0BAF94FF0E0232A
:103F9000D3F8F03D13F0010FC0D000BEBEE7124AC7
:103FA00013780133DBB2137050E74FF4AD720C4954
:103FB0000C4802F0A5F94FF0E023D3F8F03D13F0E0
:103FC000010F3FF455AF00BE52E700BF201A00209A
:103FD000181A002020800008141A0020101A00204F
:103FE000A07F0008F87500081C1A00202DE9F04198
:103FF00086B00646374B010103EB00125D58177A75
:1040000000243EE0082205EB4813C3F8082B03AB5D
:1040100000220392049205928DF80C6006228DF81E
:104020000D202D4A92E8030006AA02E903000121AF
:104030001846FFF7EDFE05EB4813D3F8083B13F0E5
:10404000010F1CD005EB48130122C3F8082B14B94B
:10405000224B1B889BBB224B03EB48131A8903A8F6
:1040600000230393436083608DF80C6007238DF871
:104070000D308DF8104005920121FFF7C9FE013483
:10408000E4B2BC4223D2D5F8183804F11002D34070
:1040900013F0010FF3D0A04605EB4413D3F8083B0F
:1040A00013F0080FC7D013F4004FABD02A6C0D4BA0
:1040B0009A4201D80822A6E748F20802A3E7009333
:1040C0001346002221463046FEF70EFBD7E706B026
:1040D000BDE8F0814C7E0008100400201804002088
:1040E000200400200930544F2DE9F04F8BB0504B85
:1040F000010103EB001253F8019092F808A009F5B2
:10410000106500240290AB4623E044F08003494A46
:1041100002EB4812118B07A80022079242608260CE
:10412000029A8DF81C2007228DF81D208DF8203072
:1041300009910121FFF76CFEB36813F0800F06D0E0
:10414000D9F83438012505FA08F52B4220D101347D
:10415000E4B2544568D2D9F81838E34013F0010F9F
:10416000F5D0A0460BEB4416B36813F0010FE3D073
:104170000123B360002CC8D12F4B5B88002BC4D027
:10418000009301231A4621460298FEF7ADFAD3E7C1
:104190003369C3F3C94300270395CDF810A0CDF8C8
:1041A00014B09B4610E0234B03EB481A2B46DAF879
:1041B000102021460298FEF749FDDAF810302B4412
:1041C000CAF810300137BFB25F451CD233699BB2C9
:1041D000184A02EB4812558B9D4228BF1D46B26912
:1041E000164B03EA82039D420DD8124B03EB481392
:1041F00058690028D7D008F101012A4609EB01319E
:10420000FFF70CF8DEE7039DDDF810A0DDF814B031
:104210003369C3F31203002B99D1D9F8343823EA58
:104220000503C9F8343892E70BB0BDE8F08F00BF42
:104230004C7E00082004002018040020FCFF03002E
:10424000F0B585B006460301564AD458A36965699E
:104250001D4015F4805F62D115F4005F1AD04FF451
:1042600000536361D4F80838C3F3410213F0060F1A
:104270005BD0022A5BD1012201A800230193436095
:1042800083608DF8046001218DF805108DF80820F9
:10429000FFF7BEFD15F4006F4BD1002D5ADB15F072
:1042A000040F04D0676817F0040F64D1676015F03D
:1042B000080F1AD008236361D4F80838C3F30D231C
:1042C000394A12781AB9A26922F00802A26101A83B
:1042D00000220192426082608DF8046003228DF812
:1042E000052002930121FFF793FD15F0100F0ED06A
:1042F000A36923F01003A3613046FEF733FE636920
:1043000013F0100FF8D1A36943F01003A36115F463
:10431000002F3ED115F4802F3FD105B0F0BD4FF4F2
:1043200080536361FFF738FA96E70222A4E7002280
:10433000A2E74FF40063636101A800230193436087
:1043400083608DF8046004238DF805300121FFF7A8
:104350005FFDA2E74FF00043636101A800230193D2
:10436000436083608DF8046005238DF805300121DA
:10437000FFF74EFD93E701A800230193436083609C
:104380008DF8046002238DF805300121FFF740FD10
:104390008CE73046FFF72AFEBCE73046FFF7A4FE65
:1043A000BBE700BF4C7E00081C04002070B520480D
:1043B000007801F07F051F4C04EB450C0CEBD11C81
:1043C0009CF8204014F0010F22D1CE09194C04EBC7
:1043D0004504344494F820C04CF0010C84F820C00B
:1043E000FEF730FB18BB94F8202022F0010284F87D
:1043F000202094F8202022F0040284F820204FF09E
:10440000E023D3F8F03D13F0010F10D000BE0EE012
:1044100040F22A520849094801F072FF4FF0E023A8
:10442000D3F8F03D13F0010F00D000BE002070BDA6
:104430009C000020201A00206C7F0008F8750008FE
:1044400008B591F90030002B05DB802100231A46C6
:10445000FFF7ACFF08BD0021F8E7000008B586466D
:104460000B46074A944608684968ACE803000021F7
:104470009160D181918119467046FFF7E1FF08BD37
:10448000FC190020F8B50746134B9E89DD89741B83
:10449000A4B2402C28BF402493F90030002B08DB45
:1044A0000021AE4213D00D4A23463846FFF77EFF67
:1044B000F8BDAE4209D0084B9968402C09D8224675
:1044C000064801F0C1FF8021EBE78021E9E70022E7
:1044D000EAE70020ECE700BFFC190020BC1900202F
:1044E00008B58B688A6B9B1A8B62032381F8303086
:1044F0000D2301F1200291F82E10FFF757FF08BDA0
:1045000038B505468C46264CA64608684968AEE88C
:104510000300A2600021E181BCF806108B4228BF95
:104520000B46A381BCF8061029B303B132B128466B
:10453000FFF7A8FF044680B1204638BD772219490D
:10454000194801F0DDFE4FF0E023D3F8F03D13F001
:10455000010F00D000BE0024EEE77D221149124871
:1045600001F0CEFE4FF0E023D3F8F03D13F0010F41
:10457000E2D000BEE0E761462846FFF761FF04464F
:104580000028D9D180220749074801F0B9FE4FF031
:10459000E023D3F8F03D13F0010FCDD000BECBE700
:1045A000FC190020587F0008F875000838B505464A
:1045B0000C464B881A0AD8B2531E0E2B64D8DFE87B
:1045C00003F0082D4E6363592D6363636363636374
:1045D0002200FBF73BFF024628B112232146284662
:1045E000FFF78EFF51E040F22B422C492C4801F09E
:1045F00087FE4FF0E023D3F8F03D13F0010F00D019
:1046000000BE002041E0FBF774FF024600283DD0C9
:10461000438821462846FFF773FF36E0022A09D077
:10462000FBF76BFF024698B3538821462846FFF7F5
:1046300067FF2AE0FBF70EFF02460028F4D140F2A4
:1046400052421649164801F05BFE4FF0E023D3F8C2
:10465000F03D13F0010F00D000BE002015E0A1884E
:10466000FEF788FE0246A8B1037821462846FFF7E8
:1046700047FF0AE0FBF73FFF024668B10378214697
:104680002846FFF73DFF00E0002038BD0020FCE792
:104690000020FAE70020F8E70020F6E7AC7F0008EA
:1046A000F87500082DE9F04182B006460C4600205E
:1046B000FBF74CFF237803F06003602B21D0402BE5
:1046C00032D0227802F01F02012A00F00081022A73
:1046D00000F04081002A40F0C581202B2ED0002B15
:1046E0004CD16378092B00F2E780DFE813F0D200A9
:1046F000C200E500B200E5005100AC00E50060003A
:104700006D0040F2C522B049B04801F0F9FD4FF00C
:10471000E023D3F8F03D13F0010F00D000BE0025D8
:10472000284602B0BDE8F081A948FBF70FFF2246FA
:1047300001213046FBF7E3FE0546F1E7A388DBB233
:104740000F2B00F29981A34A13441B79A24A1278D5
:10475000934206D2A14A116811EB431108D10025FA
:10476000DEE7934200F28A819B1A9D4901EB4311D7
:1047700022463046FBF7F0FE0546D1E74FF0E02336
:10478000D3F8F03D13F0010F00D000BE0025C7E7BD
:104790002046FBF7EFFE6188C9B23046FEF790F97C
:1047A0008C4A137843F0020313700125B8E7894B54
:1047B0005B788DF8063001230DF106022146304664
:1047C000FFF79EFE0125ABE76588EDB2814B5B7874
:1047D000AB4232D07F4B5B785BB97E4B5D7055B39B
:1047E00029463046FFF748FA054690B1FBF776FFB9
:1047F00023E000213046FEF7B7F83046FEF7CAF84E
:10480000744F97F802803046FFF7ECF987F8028082
:10481000E3E740F215326C496C4801F071FD4FF04E
:10482000E023D3F8F03D13F0010F00D000BE694B38
:1048300000225A7074E7FBF756FF21463046FFF717
:104840000DFE01256CE721463046FFF7AFFE054619
:1048500066E76388012B01D0002561E75D4A137884
:1048600043F00803137021463046FFF7F7FD01259A
:1048700056E76388012B01D0002551E7554A13788C
:1048800023F00803137021463046FFF7E7FD0125AA
:1048900046E7504B1A78930803F00203C2F3401224
:1048A0001343ADF8063002230DF1060221463046CF
:1048B000FFF726FE012533E74FF0E023D3F8F03D64
:1048C00013F0010F00F0DC8000BE002528E7A3886C
:1048D000DBB20F2B00F2D6803E4A13441B793E4ACE
:1048E0001278934222D23D4A116811EB431100F035
:1048F000CB8022463046FBF72FFE054600287FF48A
:104900000FAF237813F0600F7FF40AAF63780A3B90
:10491000012B3FF605AFFBF719FE63780A2B0DD08C
:1049200021463046FFF79AFD0125F9E6934200F251
:10493000AD809B1A2A4901EB4311DAE700238DF879
:10494000063001230DF1060221463046FFF7D8FD5F
:104950000125E5E6A288D1B202F07F05C2F3C012BC
:10496000052D17D81B4800EB45000244127D1A485C
:10497000007882421ED21948056805EB42158BB3B8
:10498000002D00F08580224629463046FBF7E4FDE5
:104990000546C5E640F286320B490C4801F0B0FCF2
:1049A0004FF0E023D3F8F03D13F0010F00D000BE2C
:1049B0000025B5E6824204D8121A094D05EB4215CE
:1049C000DDE70025DBE700BFD87F0008F8750008A9
:1049D000FF040008201A0020141A0020101A0020DA
:1049E000208000086378012B10D0032B0ED07BBBF6
:1049F0003046FBF79DFDADF8060002230DF10602DF
:104A000021463046FFF77CFD012589E6628822B900
:104A1000012B19D03046FEF76DF8002D3AD0224612
:104A200029463046FBF798FD0020FBF78FFD1B4B16
:104A300093F8215015F001057FF472AE21463046FF
:104A4000FFF70CFD01256BE63046FEF7B9F8E4E709
:104A50004FF0E023D3F8F03D13F0010F00D000BE7B
:104A600000255DE64FF0E023D3F8F03D13F0010F91
:104A700012D000BE002553E6002551E600254FE682
:104A800000254DE600254BE6002549E6002547E6D2
:104A9000002545E6012543E6002541E6201A0020D1
:104AA00038B505461C463B4B1B78DB09B3EBD11FE1
:104AB00018D07CB1A7223849384801F021FC4FF0CA
:104AC000E023D3F8F03D13F0010F00D000BE002426
:104AD000204638BD2F4B1B6913B12E4A032198473E
:104AE0000124F5E72B4B93F90030002B07DB294B12
:104AF000986800284CD02246294901F0A5FC254A97
:104B0000D38913FA84F39BB2D381916821449160D5
:104B1000D288934201D03F2C26D81E4B1B6923B16B
:104B20001C4A022128469847A0B11A492846FFF797
:104B300087FC04460028CBD1D0221749174801F042
:104B4000DFFB4FF0E023D3F8F03D13F0010FBFD0AF
:104B500000BEBDE700212846FDF7C6FF802128469C
:104B6000FDF7C2FF0124B3E72846FFF78BFC04469C
:104B70000028ADD1D8220849084801F0C1FB4FF008
:104B8000E023D3F8F03D13F0010FA1D000BE9FE762
:104B900000249DE7FC190020407F0008F8750008FC
:104BA000BC19002030B585B0FBF7ACFC48B905B0A6
:104BB00030BD9DF80400FFF759F89DF80820724BAE
:104BC0009A70724B1D682C4654F8043B002098479D
:104BD00001A92046FEF758FB04462B6801209847A0
:104BE000002CE4D09DF80530013B072B00F2C28079
:104BF00001A252F823F000BFB34B0008194C000883
:104C00006F4D0008554D00085B4D0008274C00080B
:104C1000BD4C0008614D00089DF80400FFF726F820
:104C2000FBF761FDCDE75A4B1B78002B36D0584A75
:104C30001378013BDBB213701378002BC1D1524BB8
:104C40001A7842F001021A7093F8202022F0010233
:104C500083F8202093F8202022F0040283F82020FB
:104C600093F8212022F0010283F8212093F82120DB
:104C700022F0040283F8212002A99DF80400FFF726
:104C800011FD00289DD100219DF80400FDF72CFFA7
:104C900080219DF80400FDF727FF92E740F256229D
:104CA0003C493D4801F02CFB4FF0E023D3F8F03DA8
:104CB00013F0010F3FF47BAF00BE78E79DF80810BA
:104CC00001F07F00CC09304B03EB400303EBD11321
:104CD00093F8202022F0010283F8202093F820206E
:104CE00022F0040283F82020A8B1274B03EB4003F5
:104CF00023441B7D294A1278934214D2284A126811
:104D000012EB431316D09C69039B9DF809209DF874
:104D10000400A04755E7039B9DF809209DF8040077
:104D2000FFF7BEFE4DE7934204D89B1A1D4A02EBE3
:104D30004313E8E740F281221649174801F0E0FAF0
:104D40004FF0E023D3F8F03D13F0010F3FF42FAF05
:104D500000BE2CE70C4B1B7833E70B4B1B7830E77E
:104D6000029B002B3FF42DAF0398984729E7064B91
:104D7000DB7826E74FF0E023D3F8F03D13F0010F86
:104D80003FF41FAF00BE1CE7201A0020181A0020B5
:104D90001C1A0020F07F0008F8750008141A002083
:104DA000101A00202080000830B583B0012940F09F
:104DB0009A8005461446137803F07F02022A13D026
:104DC00003F06003202B40F092806378FE2B6CD0C0
:104DD000FF2B40F08E806388002B40F08C80E388AE
:104DE000002B59D000247FE06278012AE8D1628844
:104DF000002AE5D1A188C9B2404B93F83030042B8A
:104E00002ED03E4A92F82E208A422CD03B4A92F86D
:104E10002F408C4229D143BB2146FBF77BFB20BBB3
:104E200021462846FBF784FBF8B9344A002382F870
:104E300030301F2392F82F102846FFF7B7FA0446A8
:104E400098B940F25B122E492E4801F059FA4FF002
:104E5000E023D3F8F03D13F0010F45D000BE43E04E
:104E6000FDF748FE01E0022B01D001243CE023497C
:104E7000FFF736FB04460028F7D14FF4A87220490B
:104E8000204801F03DFA4FF0E023D3F8F03D13F055
:104E9000010F29D000BE27E01848FBF793FB2146FD
:104EA0002846FFF7DBFA01241EE063886BB9E3882C
:104EB000012B0AD18DF80730134B1BB1AFF30080E3
:104EC0008DF807009DF807300BB900240CE0013B7A
:104ED0008DF8073001230DF1070221462846FFF720
:104EE0000FFB012400E00124204603B030BD002464
:104EF000FAE70024F8E70024F6E700BF7C19002059
:104F00001C7F0008F87500080000000038B5054651
:104F10000C46194B1BB1487BAFF3008080B1A368EE
:104F2000A26B9B1AB3F5805F28BF4FF480539BB2EE
:104F3000124A94F82F102846FFF738FA60B138BDAE
:104F4000002327220721607BFBF722FB0122214659
:104F50002846FDF7EDFDF2E740F292320849094894
:104F600001F0CEF94FF0E023D3F8F03D13F0010F3C
:104F7000E5D000BEE3E700BF000000007C09002090
:104F8000E87E0008F875000838B50E4B1C685D68AF
:104F900021460D4801F0B4F929460C4801F0B0F95A
:104FA0006FF39704B4F1005F08D105F1774505F57B
:104FB0007F05B5F5002F03D8012000E0002038BDA3
:104FC0000020FCE7000001081076000820760008A9
:104FD00038B5FFF7D9FF70B30446294B13B1AFF3CF
:104FE000008070B3274D2968274801F089F92B68A4
:104FF000264A934229D0264A934234D0254A9342E6
:105000002AD0204B234A1A60234B00221A60012029
:10501000FBF708FBFF20FCF711F91F4B1B68B3F5EA
:10502000FA7FFAD3FBF71CFB0020FCF707F90024FA
:10503000144B1C6003E0194801F0CAF90124204612
:1050400038BD164801F0C4F9F9E7154801F0C0F978
:1050500000240C4B1C60F2E7124801F0B9F9094B2F
:1050600000221A60EBE7104801F0B2F9054B00226C
:105070001A600320FBF7FCFA0420FBF7F9FADEE7DD
:1050800000000000FCFF002044760008EF6926F0D5
:10509000B40AE8F5EF6916F0D02200203476000853
:1050A00064760008787600088C760008F8B500244D
:1050B00026464FF00065172C1AD8264B9D4208D87B
:1050C000254B53F82460AB19834209D801341D469F
:1050D000F1E772222149224801F012F900270BE082
:1050E000204B1F5D003F18BF012701221A5501E028
:1050F0000024274614B147B13846F8BD812217492C
:10510000174801F0FDF80027F6E731462846FBF77F
:10511000EFFA07460028EFD1B20A2946124801F0FB
:10512000EFF802212046FCF717FA4FF0FF30FCF7AA
:1051300097F90E4801F04CF931462846FBF7D8FAAA
:1051400007460028D8D18A220449054801F0D8F83A
:10515000D2E700BFFFFF0708747E0008D47E000876
:10516000F8750008D008002098760008B876000886
:1051700030B58FB00546FCF7B5F807A800230793B4
:1051800043608360C360036143618361FCF7BEFADF
:10519000099C04F00304B4FA84F464092A46214605
:1051A000134801F0ADF8AC421FD0002300930193E7
:1051B00002930393049305930693012300930393AF
:1051C000032302935DB1012301936846FCF738FA8B
:1051D00038B10024FCF79AF820460FB030BD002308
:1051E000F2E7FCF7ABF90124F4E70124F2E700BF92
:1051F000BC76000810B5364B040103EB00101C59B7
:10520000007A01F07F0C604515D9C9090332930873
:1052100079BBC3F30D03184440000F3080B2636ABA
:10522000834252D22B4B1B880344B3F5A07F11D885
:105230006062012039E084222749284801F060F8A3
:105240004FF0E023D3F8F03D13F0010F00D000BE83
:1052500000202AE0A2222049204801F051F84FF016
:10526000E023D3F8F03D13F0010F00D000BE002082
:105270001BE0A26812F0800F01D15B009BB2154ABF
:105280001288606AD1180144B1F5A07F0ED81A4483
:1052900092B210490A80C2F5A07242EA03420CF1B0
:1052A0003F0C04EB8C046260012010BDAF220A4960
:1052B0000A4801F025F84FF0E023D3F8F03D13F051
:1052C000010F00D000BE0020EFE70120EDE700BF96
:1052D0004C7E0008A0040020407E0008F8750008FD
:1052E00008B5036C6FF30F030F4A934218D00F4AAF
:1052F000934217D002F58032934201D1012010E091
:105300004FF40B720A490B4800F0FAFF4FF0E0230C
:10531000D3F8F03D13F0010F00D000BE002000E0F4
:10532000012008BD0120FCE70000544F000031556A
:10533000347E0008F875000838B5054603012A4A8E
:10534000D4582046FFF7CCFF00B938BD2846FDF7FA
:10535000FFFA2046FDF75EFA002841D02046FDF70F
:1053600078FAD4F8003E23F00F03C4F8003EE36857
:1053700043F00703E360E36823F0C04343F0804356
:10538000E360236823F0D00343F0C0032360D4F824
:10539000003843F00403C4F800384FF484632361F9
:1053A000236913F0200FFBD110232361236913F02D
:1053B000100FFBD1626963691343636162686368BC
:1053C00013436360094BA361A36843F08003A360A8
:1053D000A36843F00103A3602846FDF7ADFAB4E7E4
:1053E0002046FDF719FABCE74C7E0008143800800F
:1053F00070B50546FBF786F8064608B1304670BD25
:105400002C220021214801F014F8214B00221A70AF
:10541000204C2046FBF768F8043C1F4B1C601F4BD8
:1054200023B11F48AFF300801E4B1860002408E032
:10543000E31A1D4A02EB43135B686BB198470134D2
:10544000E4B2174B1B78A34215D3A342F0D9154BF6
:105450001B6813EB4413EFD14FF4F1721349144856
:1054600000F04EFF4FF0E023D3F8F03D13F0010FB2
:10547000C4D000BEC2E70F4B1D702846FFF75CFF8B
:105480002846FDF733FA0126B8E700BF201A0020AE
:105490001C1A002090000020181A002000000000B4
:1054A000141A0020101A0020208000081480000820
:1054B000F87500089C00002070B505460C468A88E7
:1054C000C2F30A028978FFF795FE064628B1214605
:1054D0002846FDF743F8304670BD40F2D122064918
:1054E000064800F00DFF4FF0E023D3F8F03D13F035
:1054F000010FF0D000BEEEE7247E0008F87500082A
:1055000070B51A4B1E788B7803F07F03052B0ED8ED
:105510000C46174B99782046FEF7F4FA0546B0B1D1
:1055200021463046FFF7C8FF0546284670BD40F2C9
:10553000FC421049104800F0E3FE4FF0E023D3F89E
:10554000F03D13F0010F00D000BE0025EDE740F262
:10555000FD420849084800F0D3FE4FF0E023D3F89D
:10556000F03D13F0010FE0D000BEDEE79C0000200C
:10557000201A00207C7F0008F87500082DE9F84FFC
:1055800080460C4616461F46DDF82890DDF82CA014
:10559000002526E04FF49B621F49204800F0B0FE32
:1055A0004FF0E023D3F8F03D13F0010F00D000BE20
:1055B0004FF0000B5846BDE8F88F40F2D94216492B
:1055C000164800F09DFE4FF0E023D3F8F03D13F0B5
:1055D000010FEFD000BEEDE78AF8003023781C44BD
:1055E0000135AE4214DD6378052BD3D1E17801F0AB
:1055F0000301B942CED121464046FFF781FF8346E1
:105600000028DAD0A378DA09E6D189F80030E5E796
:105610004FF0010BCEE700BF8C7F0008F875000843
:105620004B79082B58D110B582B004468B79062BE4
:1056300054D1CB79502B54D1162A1DD98A782A4BB4
:1056400083F82D20087803F12E0201922F33009366
:1056500002231A4601442046FFF790FFE0B1224A98
:10566000002382F830301F2392F82F102046FEF7D7
:105670009DFE08B3172032E04FF48C721B491C4882
:1056800000F03EFE4FF0E023D3F8F03D13F0010FA1
:1056900000D000BE002022E04FF48F72134914485E
:1056A00000F02EFE4FF0E023D3F8F03D13F0010F91
:1056B00000D000BE002012E040F221120B490C483D
:1056C00000F01EFE4FF0E023D3F8F03D13F0010F81
:1056D00000D000BE172002E000207047002002B07A
:1056E00010BD0020FBE700BF7C190020347F0008BC
:1056F000F8750008C28A816811B91ABB002070478A
:1057000053BA9BB290F80FC0BCF1280F07D0BCF180
:105710002A0F20D022B3994224D30020704700B52D
:1057200090F80CE05FEADE1E0ED0BCF12A0F04D028
:1057300062B199420DD3002009E0007BC009F7D087
:10574000022004E002207047022000E001205DF802
:1057500004FB0220FBE7007BC009DBD0022070477E
:10576000012070470220704770B58CB00646154680
:105770001C4691F800C0BCF1250F00F27881DFE8EB
:105780001CF02600760176012F0176017601760164
:105790007601760176017601760176017601760151
:1057A000760176017601C9007601760176017601EF
:1057B00076017601760104013A0076017601540003
:1057C0007601760176017601960076016E00FAF791
:1057D00030FE002840F05081AB4B93F83C3013B1C1
:1057E0004FF0FF3445E13A2202213046FAF7D0FE6D
:1057F0004FF0FF343DE10979C1F3400301F00102AC
:105800000909FAF721FE002840F038819E4B93F8F1
:105810003C3013B14FF0FF342BE13A2202213046E5
:10582000FAF7B6FE4FF0FF3423E1984B002B00F05F
:1058300027814A790979AFF30080002840F022815E
:10584000914B93F83C3013B14FF0FF3411E13A2201
:1058500002213046FAF79CFE4FF0FF3409E10DF1CA
:10586000060202A9FAF7E8FDBDF80620029B03B183
:1058700072B9854B93F83C3013B14FF0FF34F8E028
:105880003A2202213046FAF783FE4FF0FF34F0E06F
:10589000013B1BBA039312BA0492072C05D903AB40
:1058A00003CB286069600824E3E00024E1E00023E2
:1058B00003930493059308238DF80F3002238DF88A
:1058C00014300DF1060202A9FAF7B6FD029B13B1DE
:1058D000BDF8062072B96C4B93F83C3013B14FF011
:1058E000FF34C6E03A2202213046FAF751FE4FF06B
:1058F000FF34BEE01BBA049352BAADF816200B2C4D
:1059000006D903AB07CB28606960AA600C24B0E01D
:105910000024AEE02422002103A800F08AFD9DF8B7
:105920000D3043F080038DF80D3002228DF80E20EB
:105930009DF80F3062F303038DF80F301F238DF8AD
:10594000103005A94FF0203305934B6007AA079349
:1059500053609360D3600B930BAB3046FDF7A0F917
:10596000232C10D903AE0DF12C0C34460FCC28603B
:105970006960AA60EB60264610356445F5D1206861
:105980002860242475E0002473E003238DF80C3094
:1059900000238DF80D309DF80E2063F306028DF87C
:1059A0000E20D2B263F3C7128DF80E208DF80F309F
:1059B000374B8BB1AFF30080034683F00103DBB2BA
:1059C0009DF80E2063F3C7128DF80E20032C05D925
:1059D000039B2B6004244CE00123EEE7002448E005
:1059E00000230393049305930693ADF81C309DF8B0
:1059F0000C30702262F306038DF80C30DBB243F0FA
:105A000080038DF80C300A238DF813301E4B93F869
:105A10003C109DF80E2061F303028DF80E2093F8E0
:105A20003D208DF8182093F83E308DF81930112C58
:105A30001BD90DF10C0CBCE80F0028606960AA604E
:105A4000EB60BCF800302B82124B63B1A2B2294646
:105A50003046AFF30080044600231A46194630460C
:105A6000FAF796FD05E01224F6E7002401E04FF076
:105A7000FF3420460CB070BD0024FAE70024F8E79C
:105A80000024F6E70024F4E77C1900200000000061
:105A9000000000000000000030B587B005460C464D
:105AA000CA8A2AB153BA9BB28A68B2FBF3F292B2A5
:105AB000D4F8111009BAA06BB0FBF2FCA3681B1A52
:105AC000B3F5805F28BF4FF4805300931F4B02FB58
:105AD0001C026144607BFDF7E9FF002812DBE8B996
